{
  "_format": "hh-sol-artifact-1",
  "contractName": "Counter",
  "sourceName": "contracts/Counter.sol",
  "abi": [
    {
      "inputs": [
        {
          "internalType": "uint256",
          "name": "_counter",
          "type": "uint256"
        }
      ],
      "stateMutability": "nonpayable",
      "type": "constructor"
    },
    {
      "inputs": [],
      "name": "decrementCounter",
      "outputs": [
        {
          "internalType": "uint256",
          "name": "",
          "type": "uint256"
        }
      ],
      "stateMutability": "nonpayable",
      "type": "function"
    },
    {
      "inputs": [],
      "name": "getCount",
      "outputs": [
        {
          "internalType": "uint256",
          "name": "",
          "type": "uint256"
        }
      ],
      "stateMutability": "view",
      "type": "function"
    },
    {
      "inputs": [],
      "name": "incrementCounter",
      "outputs": [
        {
          "internalType": "uint256",
          "name": "",
          "type": "uint256"
        }
      ],
      "stateMutability": "nonpayable",
      "type": "function"
    }
  ],
  "bytecode": "0x608060405234801561001057600080fd5b506040516106fd3803806106fd83398181016040528101906100329190610168565b61007b6040518060400160405280601481526020017f4465706c6f79696e67206120436f756e7465723a0000000000000000000000008152508261008860201b6101b31760201c565b806000819055505061028a565b610126828260405160240161009e9291906101d9565b6040516020818303038152906040527f9710a9d0000000000000000000000000000000000000000000000000000000007bffffffffffffffffffffffffffffffffffffffffffffffffffffffff19166020820180517bffffffffffffffffffffffffffffffffffffffffffffffffffffffff838183161783525050505061012a60201b60201c565b5050565b60008151905060006a636f6e736f6c652e6c6f679050602083016000808483855afa5050505050565b60008151905061016281610273565b92915050565b60006020828403121561017a57600080fd5b600061018884828501610153565b91505092915050565b600061019c82610209565b6101a68185610214565b93506101b681856020860161022f565b6101bf81610262565b840191505092915050565b6101d381610225565b82525050565b600060408201905081810360008301526101f38185610191565b905061020260208301846101ca565b9392505050565b600081519050919050565b600082825260208201905092915050565b6000819050919050565b60005b8381101561024d578082015181840152602081019050610232565b8381111561025c576000848401525b50505050565b6000601f19601f8301169050919050565b61027c81610225565b811461028757600080fd5b50565b610464806102996000396000f3fe608060405234801561001057600080fd5b50600436106100415760003560e01c80635b34b96614610046578063a87d942c14610064578063f5c5ad8314610082575b600080fd5b61004e6100a0565b60405161005b91906102f0565b60405180910390f35b61006c610104565b60405161007991906102f0565b60405180910390f35b61008a61014f565b60405161009791906102f0565b60405180910390f35b600060016000808282546100b49190610327565b925050819055506100fc6040518060400160405280600881526020017f436f756e7465723a0000000000000000000000000000000000000000000000008152506000546101b3565b600054905090565b60006101476040518060400160405280600881526020017f436f756e7465723a0000000000000000000000000000000000000000000000008152506000546101b3565b600054905090565b60006001600080828254610163919061037d565b925050819055506101ab6040518060400160405280600881526020017f436f756e7465723a0000000000000000000000000000000000000000000000008152506000546101b3565b600054905090565b61024b82826040516024016101c99291906102c0565b6040516020818303038152906040527f9710a9d0000000000000000000000000000000000000000000000000000000007bffffffffffffffffffffffffffffffffffffffffffffffffffffffff19166020820180517bffffffffffffffffffffffffffffffffffffffffffffffffffffffff838183161783525050505061024f565b5050565b60008151905060006a636f6e736f6c652e6c6f679050602083016000808483855afa5050505050565b60006102838261030b565b61028d8185610316565b935061029d8185602086016103bb565b6102a68161041d565b840191505092915050565b6102ba816103b1565b82525050565b600060408201905081810360008301526102da8185610278565b90506102e960208301846102b1565b9392505050565b600060208201905061030560008301846102b1565b92915050565b600081519050919050565b600082825260208201905092915050565b6000610332826103b1565b915061033d836103b1565b9250827fffffffffffffffffffffffffffffffffffffffffffffffffffffffffffffffff03821115610372576103716103ee565b5b828201905092915050565b6000610388826103b1565b9150610393836103b1565b9250828210156103a6576103a56103ee565b5b828203905092915050565b6000819050919050565b60005b838110156103d95780820151818401526020810190506103be565b838111156103e8576000848401525b50505050565b7f4e487b7100000000000000000000000000000000000000000000000000000000600052601160045260246000fd5b6000601f19601f830116905091905056fea26469706673582212200d61f912d30340887792df37f152d93f9ce9a486b90b11f81b7a6a88f12ca16764736f6c63430008000033",
  "linkReferences": {},
  "deployedLinkReferences": {}
}