{
    "_format": "hh-sol-artifact-1",
    "contractName": "MyERC20",
    "sourceName": "contracts/MyERC20.sol",
    "abi": [
        {
            "inputs": [
                {
                    "internalType": "uint256",
                    "name": "initSupply",
                    "type": "uint256"
                }
            ],
            "stateMutability": "nonpayable",
            "type": "constructor"
        },
        {
            "anonymous": false,
            "inputs": [
                {
                    "indexed": true,
                    "internalType": "address",
                    "name": "owner",
                    "type": "address"
                },
                {
                    "indexed": true,
                    "internalType": "address",
                    "name": "spender",
                    "type": "address"
                },
                {
                    "indexed": false,
                    "internalType": "uint256",
                    "name": "value",
                    "type": "uint256"
                }
            ],
            "name": "Approval",
            "type": "event"
        },
        {
            "anonymous": false,
            "inputs": [
                {
                    "indexed": true,
                    "internalType": "address",
                    "name": "previousOwner",
                    "type": "address"
                },
                {
                    "indexed": true,
                    "internalType": "address",
                    "name": "newOwner",
                    "type": "address"
                }
            ],
            "name": "OwnershipTransferred",
            "type": "event"
        },
        {
            "anonymous": false,
            "inputs": [
                {
                    "indexed": true,
                    "internalType": "address",
                    "name": "from",
                    "type": "address"
                },
                {
                    "indexed": true,
                    "internalType": "address",
                    "name": "to",
                    "type": "address"
                },
                {
                    "indexed": false,
                    "internalType": "uint256",
                    "name": "value",
                    "type": "uint256"
                }
            ],
            "name": "Transfer",
            "type": "event"
        },
        {
            "inputs": [
                {
                    "internalType": "address",
                    "name": "owner",
                    "type": "address"
                },
                {
                    "internalType": "address",
                    "name": "spender",
                    "type": "address"
                }
            ],
            "name": "allowance",
            "outputs": [
                {
                    "internalType": "uint256",
                    "name": "",
                    "type": "uint256"
                }
            ],
            "stateMutability": "view",
            "type": "function"
        },
        {
            "inputs": [
                {
                    "internalType": "address",
                    "name": "spender",
                    "type": "address"
                },
                {
                    "internalType": "uint256",
                    "name": "amount",
                    "type": "uint256"
                }
            ],
            "name": "approve",
            "outputs": [
                {
                    "internalType": "bool",
                    "name": "",
                    "type": "bool"
                }
            ],
            "stateMutability": "nonpayable",
            "type": "function"
        },
        {
            "inputs": [
                {
                    "internalType": "address",
                    "name": "account",
                    "type": "address"
                }
            ],
            "name": "balanceOf",
            "outputs": [
                {
                    "internalType": "uint256",
                    "name": "",
                    "type": "uint256"
                }
            ],
            "stateMutability": "view",
            "type": "function"
        },
        {
            "inputs": [
                {
                    "internalType": "uint256",
                    "name": "amount",
                    "type": "uint256"
                }
            ],
            "name": "burn",
            "outputs": [],
            "stateMutability": "nonpayable",
            "type": "function"
        },
        {
            "inputs": [
                {
                    "internalType": "address",
                    "name": "account",
                    "type": "address"
                },
                {
                    "internalType": "uint256",
                    "name": "amount",
                    "type": "uint256"
                }
            ],
            "name": "burnFrom",
            "outputs": [],
            "stateMutability": "nonpayable",
            "type": "function"
        },
        {
            "inputs": [],
            "name": "decimals",
            "outputs": [
                {
                    "internalType": "uint8",
                    "name": "",
                    "type": "uint8"
                }
            ],
            "stateMutability": "view",
            "type": "function"
        },
        {
            "inputs": [
                {
                    "internalType": "address",
                    "name": "spender",
                    "type": "address"
                },
                {
                    "internalType": "uint256",
                    "name": "subtractedValue",
                    "type": "uint256"
                }
            ],
            "name": "decreaseAllowance",
            "outputs": [
                {
                    "internalType": "bool",
                    "name": "",
                    "type": "bool"
                }
            ],
            "stateMutability": "nonpayable",
            "type": "function"
        },
        {
            "inputs": [
                {
                    "internalType": "address",
                    "name": "spender",
                    "type": "address"
                },
                {
                    "internalType": "uint256",
                    "name": "addedValue",
                    "type": "uint256"
                }
            ],
            "name": "increaseAllowance",
            "outputs": [
                {
                    "internalType": "bool",
                    "name": "",
                    "type": "bool"
                }
            ],
            "stateMutability": "nonpayable",
            "type": "function"
        },
        {
            "inputs": [],
            "name": "name",
            "outputs": [
                {
                    "internalType": "string",
                    "name": "",
                    "type": "string"
                }
            ],
            "stateMutability": "view",
            "type": "function"
        },
        {
            "inputs": [],
            "name": "owner",
            "outputs": [
                {
                    "internalType": "address",
                    "name": "",
                    "type": "address"
                }
            ],
            "stateMutability": "view",
            "type": "function"
        },
        {
            "inputs": [],
            "name": "renounceOwnership",
            "outputs": [],
            "stateMutability": "nonpayable",
            "type": "function"
        },
        {
            "inputs": [],
            "name": "symbol",
            "outputs": [
                {
                    "internalType": "string",
                    "name": "",
                    "type": "string"
                }
            ],
            "stateMutability": "view",
            "type": "function"
        },
        {
            "inputs": [],
            "name": "totalSupply",
            "outputs": [
                {
                    "internalType": "uint256",
                    "name": "",
                    "type": "uint256"
                }
            ],
            "stateMutability": "view",
            "type": "function"
        },
        {
            "inputs": [
                {
                    "internalType": "address",
                    "name": "to",
                    "type": "address"
                },
                {
                    "internalType": "uint256",
                    "name": "amount",
                    "type": "uint256"
                }
            ],
            "name": "transfer",
            "outputs": [
                {
                    "internalType": "bool",
                    "name": "",
                    "type": "bool"
                }
            ],
            "stateMutability": "nonpayable",
            "type": "function"
        },
        {
            "inputs": [
                {
                    "internalType": "address",
                    "name": "from",
                    "type": "address"
                },
                {
                    "internalType": "address",
                    "name": "to",
                    "type": "address"
                },
                {
                    "internalType": "uint256",
                    "name": "amount",
                    "type": "uint256"
                }
            ],
            "name": "transferFrom",
            "outputs": [
                {
                    "internalType": "bool",
                    "name": "",
                    "type": "bool"
                }
            ],
            "stateMutability": "nonpayable",
            "type": "function"
        },
        {
            "inputs": [
                {
                    "internalType": "address",
                    "name": "newOwner",
                    "type": "address"
                }
            ],
            "name": "transferOwnership",
            "outputs": [],
            "stateMutability": "nonpayable",
            "type": "function"
        }
    ],
    "bytecode": "0x60806040523480156200001157600080fd5b50604051620020b5380380620020b5833981810160405281019062000037919062000469565b6040518060400160405280600d81526020017f4d79546f6b656e313233313233000000000000000000000000000000000000008152506040518060400160405280600481526020017f4d545454000000000000000000000000000000000000000000000000000000008152508160039080519060200190620000bb929190620003a2565b508060049080519060200190620000d4929190620003a2565b505050620000f7620000eb6200015160201b60201c565b6200015960201b60201c565b33600660006101000a81548173ffffffffffffffffffffffffffffffffffffffff021916908373ffffffffffffffffffffffffffffffffffffffff1602179055506200014a33826200021f60201b60201c565b506200065b565b600033905090565b6000600560009054906101000a900473ffffffffffffffffffffffffffffffffffffffff16905081600560006101000a81548173ffffffffffffffffffffffffffffffffffffffff021916908373ffffffffffffffffffffffffffffffffffffffff1602179055508173ffffffffffffffffffffffffffffffffffffffff168173ffffffffffffffffffffffffffffffffffffffff167f8be0079c531659141344cd1fd0a4f28419497f9722a3daafe3b4186f6b6457e060405160405180910390a35050565b600073ffffffffffffffffffffffffffffffffffffffff168273ffffffffffffffffffffffffffffffffffffffff16141562000292576040517f08c379a00000000000000000000000000000000000000000000000000000000081526004016200028990620004cd565b60405180910390fd5b620002a6600083836200039860201b60201c565b8060026000828254620002ba91906200051d565b92505081905550806000808473ffffffffffffffffffffffffffffffffffffffff1673ffffffffffffffffffffffffffffffffffffffff16815260200190815260200160002060008282546200031191906200051d565b925050819055508173ffffffffffffffffffffffffffffffffffffffff16600073ffffffffffffffffffffffffffffffffffffffff167fddf252ad1be2c89b69c2b068fc378daa952ba7f163c4a11628f55a4df523b3ef83604051620003789190620004ef565b60405180910390a362000394600083836200039d60201b60201c565b5050565b505050565b505050565b828054620003b09062000584565b90600052602060002090601f016020900481019282620003d4576000855562000420565b82601f10620003ef57805160ff191683800117855562000420565b8280016001018555821562000420579182015b828111156200041f57825182559160200191906001019062000402565b5b5090506200042f919062000433565b5090565b5b808211156200044e57600081600090555060010162000434565b5090565b600081519050620004638162000641565b92915050565b6000602082840312156200047c57600080fd5b60006200048c8482850162000452565b91505092915050565b6000620004a4601f836200050c565b9150620004b18262000618565b602082019050919050565b620004c7816200057a565b82525050565b60006020820190508181036000830152620004e88162000495565b9050919050565b6000602082019050620005066000830184620004bc565b92915050565b600082825260208201905092915050565b60006200052a826200057a565b915062000537836200057a565b9250827fffffffffffffffffffffffffffffffffffffffffffffffffffffffffffffffff038211156200056f576200056e620005ba565b5b828201905092915050565b6000819050919050565b600060028204905060018216806200059d57607f821691505b60208210811415620005b457620005b3620005e9565b5b50919050565b7f4e487b7100000000000000000000000000000000000000000000000000000000600052601160045260246000fd5b7f4e487b7100000000000000000000000000000000000000000000000000000000600052602260045260246000fd5b7f45524332303a206d696e7420746f20746865207a65726f206164647265737300600082015250565b6200064c816200057a565b81146200065857600080fd5b50565b611a4a806200066b6000396000f3fe608060405234801561001057600080fd5b50600436106101005760003560e01c8063715018a611610097578063a457c2d711610066578063a457c2d71461029d578063a9059cbb146102cd578063dd62ed3e146102fd578063f2fde38b1461032d57610100565b8063715018a61461023b57806379cc6790146102455780638da5cb5b1461026157806395d89b411461027f57610100565b8063313ce567116100d3578063313ce567146101a157806339509351146101bf57806342966c68146101ef57806370a082311461020b57610100565b806306fdde0314610105578063095ea7b31461012357806318160ddd1461015357806323b872dd14610171575b600080fd5b61010d610349565b60405161011a9190611346565b60405180910390f35b61013d600480360381019061013891906110b5565b6103db565b60405161014a919061132b565b60405180910390f35b61015b6103fe565b60405161016891906114c8565b60405180910390f35b61018b60048036038101906101869190611066565b610408565b604051610198919061132b565b60405180910390f35b6101a9610437565b6040516101b691906114e3565b60405180910390f35b6101d960048036038101906101d491906110b5565b610440565b6040516101e6919061132b565b60405180910390f35b610209600480360381019061020491906110f1565b610477565b005b61022560048036038101906102209190611001565b61048b565b60405161023291906114c8565b60405180910390f35b6102436104d3565b005b61025f600480360381019061025a91906110b5565b61055b565b005b61026961057b565b6040516102769190611310565b60405180910390f35b6102876105a5565b6040516102949190611346565b60405180910390f35b6102b760048036038101906102b291906110b5565b610637565b6040516102c4919061132b565b60405180910390f35b6102e760048036038101906102e291906110b5565b6106ae565b6040516102f4919061132b565b60405180910390f35b6103176004803603810190610312919061102a565b6106d1565b60405161032491906114c8565b60405180910390f35b61034760048036038101906103429190611001565b610758565b005b6060600380546103589061162c565b80601f01602080910402602001604051908101604052809291908181526020018280546103849061162c565b80156103d15780601f106103a6576101008083540402835291602001916103d1565b820191906000526020600020905b8154815290600101906020018083116103b457829003601f168201915b5050505050905090565b6000806103e6610850565b90506103f3818585610858565b600191505092915050565b6000600254905090565b600080610413610850565b9050610420858285610a23565b61042b858585610aaf565b60019150509392505050565b60006012905090565b60008061044b610850565b905061046c81858561045d85896106d1565b610467919061151a565b610858565b600191505092915050565b610488610482610850565b82610d30565b50565b60008060008373ffffffffffffffffffffffffffffffffffffffff1673ffffffffffffffffffffffffffffffffffffffff168152602001908152602001600020549050919050565b6104db610850565b73ffffffffffffffffffffffffffffffffffffffff166104f961057b565b73ffffffffffffffffffffffffffffffffffffffff161461054f576040517f08c379a000000000000000000000000000000000000000000000000000000000815260040161054690611428565b60405180910390fd5b6105596000610f07565b565b61056d82610567610850565b83610a23565b6105778282610d30565b5050565b6000600560009054906101000a900473ffffffffffffffffffffffffffffffffffffffff16905090565b6060600480546105b49061162c565b80601f01602080910402602001604051908101604052809291908181526020018280546105e09061162c565b801561062d5780601f106106025761010080835404028352916020019161062d565b820191906000526020600020905b81548152906001019060200180831161061057829003601f168201915b5050505050905090565b600080610642610850565b9050600061065082866106d1565b905083811015610695576040517f08c379a000000000000000000000000000000000000000000000000000000000815260040161068c906114a8565b60405180910390fd5b6106a28286868403610858565b60019250505092915050565b6000806106b9610850565b90506106c6818585610aaf565b600191505092915050565b6000600160008473ffffffffffffffffffffffffffffffffffffffff1673ffffffffffffffffffffffffffffffffffffffff16815260200190815260200160002060008373ffffffffffffffffffffffffffffffffffffffff1673ffffffffffffffffffffffffffffffffffffffff16815260200190815260200160002054905092915050565b610760610850565b73ffffffffffffffffffffffffffffffffffffffff1661077e61057b565b73ffffffffffffffffffffffffffffffffffffffff16146107d4576040517f08c379a00000000000000000000000000000000000000000000000000000000081526004016107cb90611428565b60405180910390fd5b600073ffffffffffffffffffffffffffffffffffffffff168173ffffffffffffffffffffffffffffffffffffffff161415610844576040517f08c379a000000000000000000000000000000000000000000000000000000000815260040161083b906113a8565b60405180910390fd5b61084d81610f07565b50565b600033905090565b600073ffffffffffffffffffffffffffffffffffffffff168373ffffffffffffffffffffffffffffffffffffffff1614156108c8576040517f08c379a00000000000000000000000000000000000000000000000000000000081526004016108bf90611488565b60405180910390fd5b600073ffffffffffffffffffffffffffffffffffffffff168273ffffffffffffffffffffffffffffffffffffffff161415610938576040517f08c379a000000000000000000000000000000000000000000000000000000000815260040161092f906113c8565b60405180910390fd5b80600160008573ffffffffffffffffffffffffffffffffffffffff1673ffffffffffffffffffffffffffffffffffffffff16815260200190815260200160002060008473ffffffffffffffffffffffffffffffffffffffff1673ffffffffffffffffffffffffffffffffffffffff168152602001908152602001600020819055508173ffffffffffffffffffffffffffffffffffffffff168373ffffffffffffffffffffffffffffffffffffffff167f8c5be1e5ebec7d5bd14f71427d1e84f3dd0314c0f7b2291e5b200ac8c7c3b92583604051610a1691906114c8565b60405180910390a3505050565b6000610a2f84846106d1565b90507fffffffffffffffffffffffffffffffffffffffffffffffffffffffffffffffff8114610aa95781811015610a9b576040517f08c379a0000000000000000000000000000000000000000000000000000000008152600401610a92906113e8565b60405180910390fd5b610aa88484848403610858565b5b50505050565b600073ffffffffffffffffffffffffffffffffffffffff168373ffffffffffffffffffffffffffffffffffffffff161415610b1f576040517f08c379a0000000000000000000000000000000000000000000000000000000008152600401610b1690611468565b60405180910390fd5b600073ffffffffffffffffffffffffffffffffffffffff168273ffffffffffffffffffffffffffffffffffffffff161415610b8f576040517f08c379a0000000000000000000000000000000000000000000000000000000008152600401610b8690611368565b60405180910390fd5b610b9a838383610fcd565b60008060008573ffffffffffffffffffffffffffffffffffffffff1673ffffffffffffffffffffffffffffffffffffffff16815260200190815260200160002054905081811015610c20576040517f08c379a0000000000000000000000000000000000000000000000000000000008152600401610c1790611408565b60405180910390fd5b8181036000808673ffffffffffffffffffffffffffffffffffffffff1673ffffffffffffffffffffffffffffffffffffffff16815260200190815260200160002081905550816000808573ffffffffffffffffffffffffffffffffffffffff1673ffffffffffffffffffffffffffffffffffffffff1681526020019081526020016000206000828254610cb3919061151a565b925050819055508273ffffffffffffffffffffffffffffffffffffffff168473ffffffffffffffffffffffffffffffffffffffff167fddf252ad1be2c89b69c2b068fc378daa952ba7f163c4a11628f55a4df523b3ef84604051610d1791906114c8565b60405180910390a3610d2a848484610fd2565b50505050565b600073ffffffffffffffffffffffffffffffffffffffff168273ffffffffffffffffffffffffffffffffffffffff161415610da0576040517f08c379a0000000000000000000000000000000000000000000000000000000008152600401610d9790611448565b60405180910390fd5b610dac82600083610fcd565b60008060008473ffffffffffffffffffffffffffffffffffffffff1673ffffffffffffffffffffffffffffffffffffffff16815260200190815260200160002054905081811015610e32576040517f08c379a0000000000000000000000000000000000000000000000000000000008152600401610e2990611388565b60405180910390fd5b8181036000808573ffffffffffffffffffffffffffffffffffffffff1673ffffffffffffffffffffffffffffffffffffffff168152602001908152602001600020819055508160026000828254610e899190611570565b92505081905550600073ffffffffffffffffffffffffffffffffffffffff168373ffffffffffffffffffffffffffffffffffffffff167fddf252ad1be2c89b69c2b068fc378daa952ba7f163c4a11628f55a4df523b3ef84604051610eee91906114c8565b60405180910390a3610f0283600084610fd2565b505050565b6000600560009054906101000a900473ffffffffffffffffffffffffffffffffffffffff16905081600560006101000a81548173ffffffffffffffffffffffffffffffffffffffff021916908373ffffffffffffffffffffffffffffffffffffffff1602179055508173ffffffffffffffffffffffffffffffffffffffff168173ffffffffffffffffffffffffffffffffffffffff167f8be0079c531659141344cd1fd0a4f28419497f9722a3daafe3b4186f6b6457e060405160405180910390a35050565b505050565b505050565b600081359050610fe6816119e6565b92915050565b600081359050610ffb816119fd565b92915050565b60006020828403121561101357600080fd5b600061102184828501610fd7565b91505092915050565b6000806040838503121561103d57600080fd5b600061104b85828601610fd7565b925050602061105c85828601610fd7565b9150509250929050565b60008060006060848603121561107b57600080fd5b600061108986828701610fd7565b935050602061109a86828701610fd7565b92505060406110ab86828701610fec565b9150509250925092565b600080604083850312156110c857600080fd5b60006110d685828601610fd7565b92505060206110e785828601610fec565b9150509250929050565b60006020828403121561110357600080fd5b600061111184828501610fec565b91505092915050565b611123816115a4565b82525050565b611132816115b6565b82525050565b6000611143826114fe565b61114d8185611509565b935061115d8185602086016115f9565b611166816116bc565b840191505092915050565b600061117e602383611509565b9150611189826116cd565b604082019050919050565b60006111a1602283611509565b91506111ac8261171c565b604082019050919050565b60006111c4602683611509565b91506111cf8261176b565b604082019050919050565b60006111e7602283611509565b91506111f2826117ba565b604082019050919050565b600061120a601d83611509565b915061121582611809565b602082019050919050565b600061122d602683611509565b915061123882611832565b604082019050919050565b6000611250602083611509565b915061125b82611881565b602082019050919050565b6000611273602183611509565b915061127e826118aa565b604082019050919050565b6000611296602583611509565b91506112a1826118f9565b604082019050919050565b60006112b9602483611509565b91506112c482611948565b604082019050919050565b60006112dc602583611509565b91506112e782611997565b604082019050919050565b6112fb816115e2565b82525050565b61130a816115ec565b82525050565b6000602082019050611325600083018461111a565b92915050565b60006020820190506113406000830184611129565b92915050565b600060208201905081810360008301526113608184611138565b905092915050565b6000602082019050818103600083015261138181611171565b9050919050565b600060208201905081810360008301526113a181611194565b9050919050565b600060208201905081810360008301526113c1816111b7565b9050919050565b600060208201905081810360008301526113e1816111da565b9050919050565b60006020820190508181036000830152611401816111fd565b9050919050565b6000602082019050818103600083015261142181611220565b9050919050565b6000602082019050818103600083015261144181611243565b9050919050565b6000602082019050818103600083015261146181611266565b9050919050565b6000602082019050818103600083015261148181611289565b9050919050565b600060208201905081810360008301526114a1816112ac565b9050919050565b600060208201905081810360008301526114c1816112cf565b9050919050565b60006020820190506114dd60008301846112f2565b92915050565b60006020820190506114f86000830184611301565b92915050565b600081519050919050565b600082825260208201905092915050565b6000611525826115e2565b9150611530836115e2565b9250827fffffffffffffffffffffffffffffffffffffffffffffffffffffffffffffffff038211156115655761156461165e565b5b828201905092915050565b600061157b826115e2565b9150611586836115e2565b9250828210156115995761159861165e565b5b828203905092915050565b60006115af826115c2565b9050919050565b60008115159050919050565b600073ffffffffffffffffffffffffffffffffffffffff82169050919050565b6000819050919050565b600060ff82169050919050565b60005b838110156116175780820151818401526020810190506115fc565b83811115611626576000848401525b50505050565b6000600282049050600182168061164457607f821691505b602082108114156116585761165761168d565b5b50919050565b7f4e487b7100000000000000000000000000000000000000000000000000000000600052601160045260246000fd5b7f4e487b7100000000000000000000000000000000000000000000000000000000600052602260045260246000fd5b6000601f19601f8301169050919050565b7f45524332303a207472616e7366657220746f20746865207a65726f206164647260008201527f6573730000000000000000000000000000000000000000000000000000000000602082015250565b7f45524332303a206275726e20616d6f756e7420657863656564732062616c616e60008201527f6365000000000000000000000000000000000000000000000000000000000000602082015250565b7f4f776e61626c653a206e6577206f776e657220697320746865207a65726f206160008201527f6464726573730000000000000000000000000000000000000000000000000000602082015250565b7f45524332303a20617070726f766520746f20746865207a65726f20616464726560008201527f7373000000000000000000000000000000000000000000000000000000000000602082015250565b7f45524332303a20696e73756666696369656e7420616c6c6f77616e6365000000600082015250565b7f45524332303a207472616e7366657220616d6f756e742065786365656473206260008201527f616c616e63650000000000000000000000000000000000000000000000000000602082015250565b7f4f776e61626c653a2063616c6c6572206973206e6f7420746865206f776e6572600082015250565b7f45524332303a206275726e2066726f6d20746865207a65726f2061646472657360008201527f7300000000000000000000000000000000000000000000000000000000000000602082015250565b7f45524332303a207472616e736665722066726f6d20746865207a65726f20616460008201527f6472657373000000000000000000000000000000000000000000000000000000602082015250565b7f45524332303a20617070726f76652066726f6d20746865207a65726f2061646460008201527f7265737300000000000000000000000000000000000000000000000000000000602082015250565b7f45524332303a2064656372656173656420616c6c6f77616e63652062656c6f7760008201527f207a65726f000000000000000000000000000000000000000000000000000000602082015250565b6119ef816115a4565b81146119fa57600080fd5b50565b611a06816115e2565b8114611a1157600080fd5b5056fea26469706673582212200aee0c325a8040a4c1f15b6ad662d5339a72aa22408241f0f590ba714867672664736f6c63430008040033",
    "linkReferences": {},
    "deployedLinkReferences": {}
}