{
  "_format": "hh-sol-artifact-1",
  "contractName": "ATNToken",
  "sourceName": "contracts/ATNToken.sol",
  "abi": [
    {
      "inputs": [
        {
          "internalType": "uint256",
          "name": "initialSupply",
          "type": "uint256"
        }
      ],
      "stateMutability": "nonpayable",
      "type": "constructor"
    },
    {
      "anonymous": false,
      "inputs": [
        {
          "indexed": true,
          "internalType": "address",
          "name": "owner",
          "type": "address"
        },
        {
          "indexed": true,
          "internalType": "address",
          "name": "spender",
          "type": "address"
        },
        {
          "indexed": false,
          "internalType": "uint256",
          "name": "value",
          "type": "uint256"
        }
      ],
      "name": "Approval",
      "type": "event"
    },
    {
      "anonymous": false,
      "inputs": [
        {
          "indexed": true,
          "internalType": "address",
          "name": "from",
          "type": "address"
        },
        {
          "indexed": true,
          "internalType": "address",
          "name": "to",
          "type": "address"
        },
        {
          "indexed": false,
          "internalType": "uint256",
          "name": "value",
          "type": "uint256"
        }
      ],
      "name": "Transfer",
      "type": "event"
    },
    {
      "inputs": [
        {
          "internalType": "address",
          "name": "owner",
          "type": "address"
        },
        {
          "internalType": "address",
          "name": "spender",
          "type": "address"
        }
      ],
      "name": "allowance",
      "outputs": [
        {
          "internalType": "uint256",
          "name": "",
          "type": "uint256"
        }
      ],
      "stateMutability": "view",
      "type": "function"
    },
    {
      "inputs": [
        {
          "internalType": "address",
          "name": "spender",
          "type": "address"
        },
        {
          "internalType": "uint256",
          "name": "amount",
          "type": "uint256"
        }
      ],
      "name": "approve",
      "outputs": [
        {
          "internalType": "bool",
          "name": "",
          "type": "bool"
        }
      ],
      "stateMutability": "nonpayable",
      "type": "function"
    },
    {
      "inputs": [
        {
          "internalType": "address",
          "name": "account",
          "type": "address"
        }
      ],
      "name": "balanceOf",
      "outputs": [
        {
          "internalType": "uint256",
          "name": "",
          "type": "uint256"
        }
      ],
      "stateMutability": "view",
      "type": "function"
    },
    {
      "inputs": [],
      "name": "decimals",
      "outputs": [
        {
          "internalType": "uint8",
          "name": "",
          "type": "uint8"
        }
      ],
      "stateMutability": "view",
      "type": "function"
    },
    {
      "inputs": [
        {
          "internalType": "address",
          "name": "spender",
          "type": "address"
        },
        {
          "internalType": "uint256",
          "name": "subtractedValue",
          "type": "uint256"
        }
      ],
      "name": "decreaseAllowance",
      "outputs": [
        {
          "internalType": "bool",
          "name": "",
          "type": "bool"
        }
      ],
      "stateMutability": "nonpayable",
      "type": "function"
    },
    {
      "inputs": [
        {
          "internalType": "address",
          "name": "spender",
          "type": "address"
        },
        {
          "internalType": "uint256",
          "name": "addedValue",
          "type": "uint256"
        }
      ],
      "name": "increaseAllowance",
      "outputs": [
        {
          "internalType": "bool",
          "name": "",
          "type": "bool"
        }
      ],
      "stateMutability": "nonpayable",
      "type": "function"
    },
    {
      "inputs": [],
      "name": "name",
      "outputs": [
        {
          "internalType": "string",
          "name": "",
          "type": "string"
        }
      ],
      "stateMutability": "view",
      "type": "function"
    },
    {
      "inputs": [],
      "name": "symbol",
      "outputs": [
        {
          "internalType": "string",
          "name": "",
          "type": "string"
        }
      ],
      "stateMutability": "view",
      "type": "function"
    },
    {
      "inputs": [],
      "name": "totalSupply",
      "outputs": [
        {
          "internalType": "uint256",
          "name": "",
          "type": "uint256"
        }
      ],
      "stateMutability": "view",
      "type": "function"
    },
    {
      "inputs": [
        {
          "internalType": "address",
          "name": "to",
          "type": "address"
        },
        {
          "internalType": "uint256",
          "name": "amount",
          "type": "uint256"
        }
      ],
      "name": "transfer",
      "outputs": [
        {
          "internalType": "bool",
          "name": "",
          "type": "bool"
        }
      ],
      "stateMutability": "nonpayable",
      "type": "function"
    },
    {
      "inputs": [
        {
          "internalType": "address",
          "name": "from",
          "type": "address"
        },
        {
          "internalType": "address",
          "name": "to",
          "type": "address"
        },
        {
          "internalType": "uint256",
          "name": "amount",
          "type": "uint256"
        }
      ],
      "name": "transferFrom",
      "outputs": [
        {
          "internalType": "bool",
          "name": "",
          "type": "bool"
        }
      ],
      "stateMutability": "nonpayable",
      "type": "function"
    },
    {
      "inputs": [],
      "name": "waited",
      "outputs": [],
      "stateMutability": "view",
      "type": "function"
    }
  ],
  "bytecode": "0x60806040523480156200001157600080fd5b5060405162001a1238038062001a12833981810160405281019062000037919062000451565b6040518060400160405280600b81526020017f416c6c546861744e6f64650000000000000000000000000000000000000000008152506040518060400160405280600381526020017f41544e00000000000000000000000000000000000000000000000000000000008152508160039080519060200190620000bb9291906200038a565b508060049080519060200190620000d49291906200038a565b505050620001226040518060400160405280601281526020017f596f752063616e206465627567206865726500000000000000000000000000008152506200013b60201b620005f41760201c565b620001343382620001de60201b60201c565b50620006ec565b620001db8160405160240162000152919062000511565b6040516020818303038152906040527f41304fac000000000000000000000000000000000000000000000000000000007bffffffffffffffffffffffffffffffffffffffffffffffffffffffff19166020820180517bffffffffffffffffffffffffffffffffffffffffffffffffffffffff83818316178352505050506200035760201b60201c565b50565b600073ffffffffffffffffffffffffffffffffffffffff168273ffffffffffffffffffffffffffffffffffffffff16141562000251576040517f08c379a0000000000000000000000000000000000000000000000000000000008152600401620002489062000535565b60405180910390fd5b62000265600083836200038060201b60201c565b806002600082825462000279919062000590565b92505081905550806000808473ffffffffffffffffffffffffffffffffffffffff1673ffffffffffffffffffffffffffffffffffffffff1681526020019081526020016000206000828254620002d0919062000590565b925050819055508173ffffffffffffffffffffffffffffffffffffffff16600073ffffffffffffffffffffffffffffffffffffffff167fddf252ad1be2c89b69c2b068fc378daa952ba7f163c4a11628f55a4df523b3ef8360405162000337919062000557565b60405180910390a362000353600083836200038560201b60201c565b5050565b60008151905060006a636f6e736f6c652e6c6f679050602083016000808483855afa5050505050565b505050565b505050565b82805462000398906200062d565b90600052602060002090601f016020900481019282620003bc576000855562000408565b82601f10620003d757805160ff191683800117855562000408565b8280016001018555821562000408579182015b8281111562000407578251825591602001919060010190620003ea565b5b5090506200041791906200041b565b5090565b5b80821115620004365760008160009055506001016200041c565b5090565b6000815190506200044b81620006d2565b92915050565b6000602082840312156200046457600080fd5b600062000474848285016200043a565b91505092915050565b60006200048a8262000574565b6200049681856200057f565b9350620004a8818560208601620005f7565b620004b381620006c1565b840191505092915050565b6000620004cd601f836200057f565b91507f45524332303a206d696e7420746f20746865207a65726f2061646472657373006000830152602082019050919050565b6200050b81620005ed565b82525050565b600060208201905081810360008301526200052d81846200047d565b905092915050565b600060208201905081810360008301526200055081620004be565b9050919050565b60006020820190506200056e600083018462000500565b92915050565b600081519050919050565b600082825260208201905092915050565b60006200059d82620005ed565b9150620005aa83620005ed565b9250827fffffffffffffffffffffffffffffffffffffffffffffffffffffffffffffffff03821115620005e257620005e162000663565b5b828201905092915050565b6000819050919050565b60005b8381101562000617578082015181840152602081019050620005fa565b8381111562000627576000848401525b50505050565b600060028204905060018216806200064657607f821691505b602082108114156200065d576200065c62000692565b5b50919050565b7f4e487b7100000000000000000000000000000000000000000000000000000000600052601160045260246000fd5b7f4e487b7100000000000000000000000000000000000000000000000000000000600052602260045260246000fd5b6000601f19601f8301169050919050565b620006dd81620005ed565b8114620006e957600080fd5b50565b61131680620006fc6000396000f3fe608060405234801561001057600080fd5b50600436106100b45760003560e01c806370a082311161007157806370a08231146101a357806395d89b41146101d3578063a457c2d7146101f1578063a9059cbb14610221578063cbb6ba4514610251578063dd62ed3e1461025b576100b4565b806306fdde03146100b9578063095ea7b3146100d757806318160ddd1461010757806323b872dd14610125578063313ce567146101555780633950935114610173575b600080fd5b6100c161028b565b6040516100ce9190610fdf565b60405180910390f35b6100f160048036038101906100ec9190610c7e565b61031d565b6040516100fe9190610fc4565b60405180910390f35b61010f610340565b60405161011c91906110e1565b60405180910390f35b61013f600480360381019061013a9190610c2f565b61034a565b60405161014c9190610fc4565b60405180910390f35b61015d610379565b60405161016a91906110fc565b60405180910390f35b61018d60048036038101906101889190610c7e565b610382565b60405161019a9190610fc4565b60405180910390f35b6101bd60048036038101906101b89190610bca565b6103b9565b6040516101ca91906110e1565b60405180910390f35b6101db610401565b6040516101e89190610fdf565b60405180910390f35b61020b60048036038101906102069190610c7e565b610493565b6040516102189190610fc4565b60405180910390f35b61023b60048036038101906102369190610c7e565b61050a565b6040516102489190610fc4565b60405180910390f35b61025961052d565b005b61027560048036038101906102709190610bf3565b61056d565b60405161028291906110e1565b60405180910390f35b60606003805461029a90611211565b80601f01602080910402602001604051908101604052809291908181526020018280546102c690611211565b80156103135780601f106102e857610100808354040283529160200191610313565b820191906000526020600020905b8154815290600101906020018083116102f657829003601f168201915b5050505050905090565b60008061032861068d565b9050610335818585610695565b600191505092915050565b6000600254905090565b60008061035561068d565b9050610362858285610860565b61036d8585856108ec565b60019150509392505050565b60006012905090565b60008061038d61068d565b90506103ae81858561039f858961056d565b6103a99190611133565b610695565b600191505092915050565b60008060008373ffffffffffffffffffffffffffffffffffffffff1673ffffffffffffffffffffffffffffffffffffffff168152602001908152602001600020549050919050565b60606004805461041090611211565b80601f016020809104026020016040519081016040528092919081815260200182805461043c90611211565b80156104895780601f1061045e57610100808354040283529160200191610489565b820191906000526020600020905b81548152906001019060200180831161046c57829003601f168201915b5050505050905090565b60008061049e61068d565b905060006104ac828661056d565b9050838110156104f1576040517f08c379a00000000000000000000000000000000000000000000000000000000081526004016104e8906110c1565b60405180910390fd5b6104fe8286868403610695565b60019250505092915050565b60008061051561068d565b90506105228185856108ec565b600191505092915050565b61056b6040518060400160405280600481526020017f77616974000000000000000000000000000000000000000000000000000000008152506105f4565b565b6000600160008473ffffffffffffffffffffffffffffffffffffffff1673ffffffffffffffffffffffffffffffffffffffff16815260200190815260200160002060008373ffffffffffffffffffffffffffffffffffffffff1673ffffffffffffffffffffffffffffffffffffffff16815260200190815260200160002054905092915050565b61068a816040516024016106089190610fdf565b6040516020818303038152906040527f41304fac000000000000000000000000000000000000000000000000000000007bffffffffffffffffffffffffffffffffffffffffffffffffffffffff19166020820180517bffffffffffffffffffffffffffffffffffffffffffffffffffffffff8381831617835250505050610b6d565b50565b600033905090565b600073ffffffffffffffffffffffffffffffffffffffff168373ffffffffffffffffffffffffffffffffffffffff161415610705576040517f08c379a00000000000000000000000000000000000000000000000000000000081526004016106fc906110a1565b60405180910390fd5b600073ffffffffffffffffffffffffffffffffffffffff168273ffffffffffffffffffffffffffffffffffffffff161415610775576040517f08c379a000000000000000000000000000000000000000000000000000000000815260040161076c90611021565b60405180910390fd5b80600160008573ffffffffffffffffffffffffffffffffffffffff1673ffffffffffffffffffffffffffffffffffffffff16815260200190815260200160002060008473ffffffffffffffffffffffffffffffffffffffff1673ffffffffffffffffffffffffffffffffffffffff168152602001908152602001600020819055508173ffffffffffffffffffffffffffffffffffffffff168373ffffffffffffffffffffffffffffffffffffffff167f8c5be1e5ebec7d5bd14f71427d1e84f3dd0314c0f7b2291e5b200ac8c7c3b9258360405161085391906110e1565b60405180910390a3505050565b600061086c848461056d565b90507fffffffffffffffffffffffffffffffffffffffffffffffffffffffffffffffff81146108e657818110156108d8576040517f08c379a00000000000000000000000000000000000000000000000000000000081526004016108cf90611041565b60405180910390fd5b6108e58484848403610695565b5b50505050565b600073ffffffffffffffffffffffffffffffffffffffff168373ffffffffffffffffffffffffffffffffffffffff16141561095c576040517f08c379a000000000000000000000000000000000000000000000000000000000815260040161095390611081565b60405180910390fd5b600073ffffffffffffffffffffffffffffffffffffffff168273ffffffffffffffffffffffffffffffffffffffff1614156109cc576040517f08c379a00000000000000000000000000000000000000000000000000000000081526004016109c390611001565b60405180910390fd5b6109d7838383610b96565b60008060008573ffffffffffffffffffffffffffffffffffffffff1673ffffffffffffffffffffffffffffffffffffffff16815260200190815260200160002054905081811015610a5d576040517f08c379a0000000000000000000000000000000000000000000000000000000008152600401610a5490611061565b60405180910390fd5b8181036000808673ffffffffffffffffffffffffffffffffffffffff1673ffffffffffffffffffffffffffffffffffffffff16815260200190815260200160002081905550816000808573ffffffffffffffffffffffffffffffffffffffff1673ffffffffffffffffffffffffffffffffffffffff1681526020019081526020016000206000828254610af09190611133565b925050819055508273ffffffffffffffffffffffffffffffffffffffff168473ffffffffffffffffffffffffffffffffffffffff167fddf252ad1be2c89b69c2b068fc378daa952ba7f163c4a11628f55a4df523b3ef84604051610b5491906110e1565b60405180910390a3610b67848484610b9b565b50505050565b60008151905060006a636f6e736f6c652e6c6f679050602083016000808483855afa5050505050565b505050565b505050565b600081359050610baf816112b2565b92915050565b600081359050610bc4816112c9565b92915050565b600060208284031215610bdc57600080fd5b6000610bea84828501610ba0565b91505092915050565b60008060408385031215610c0657600080fd5b6000610c1485828601610ba0565b9250506020610c2585828601610ba0565b9150509250929050565b600080600060608486031215610c4457600080fd5b6000610c5286828701610ba0565b9350506020610c6386828701610ba0565b9250506040610c7486828701610bb5565b9150509250925092565b60008060408385031215610c9157600080fd5b6000610c9f85828601610ba0565b9250506020610cb085828601610bb5565b9150509250929050565b610cc38161119b565b82525050565b6000610cd482611117565b610cde8185611122565b9350610cee8185602086016111de565b610cf7816112a1565b840191505092915050565b6000610d0f602383611122565b91507f45524332303a207472616e7366657220746f20746865207a65726f206164647260008301527f65737300000000000000000000000000000000000000000000000000000000006020830152604082019050919050565b6000610d75602283611122565b91507f45524332303a20617070726f766520746f20746865207a65726f20616464726560008301527f73730000000000000000000000000000000000000000000000000000000000006020830152604082019050919050565b6000610ddb601d83611122565b91507f45524332303a20696e73756666696369656e7420616c6c6f77616e63650000006000830152602082019050919050565b6000610e1b602683611122565b91507f45524332303a207472616e7366657220616d6f756e742065786365656473206260008301527f616c616e636500000000000000000000000000000000000000000000000000006020830152604082019050919050565b6000610e81602583611122565b91507f45524332303a207472616e736665722066726f6d20746865207a65726f20616460008301527f64726573730000000000000000000000000000000000000000000000000000006020830152604082019050919050565b6000610ee7602483611122565b91507f45524332303a20617070726f76652066726f6d20746865207a65726f2061646460008301527f72657373000000000000000000000000000000000000000000000000000000006020830152604082019050919050565b6000610f4d602583611122565b91507f45524332303a2064656372656173656420616c6c6f77616e63652062656c6f7760008301527f207a65726f0000000000000000000000000000000000000000000000000000006020830152604082019050919050565b610faf816111c7565b82525050565b610fbe816111d1565b82525050565b6000602082019050610fd96000830184610cba565b92915050565b60006020820190508181036000830152610ff98184610cc9565b905092915050565b6000602082019050818103600083015261101a81610d02565b9050919050565b6000602082019050818103600083015261103a81610d68565b9050919050565b6000602082019050818103600083015261105a81610dce565b9050919050565b6000602082019050818103600083015261107a81610e0e565b9050919050565b6000602082019050818103600083015261109a81610e74565b9050919050565b600060208201905081810360008301526110ba81610eda565b9050919050565b600060208201905081810360008301526110da81610f40565b9050919050565b60006020820190506110f66000830184610fa6565b92915050565b60006020820190506111116000830184610fb5565b92915050565b600081519050919050565b600082825260208201905092915050565b600061113e826111c7565b9150611149836111c7565b9250827fffffffffffffffffffffffffffffffffffffffffffffffffffffffffffffffff0382111561117e5761117d611243565b5b828201905092915050565b6000611194826111a7565b9050919050565b60008115159050919050565b600073ffffffffffffffffffffffffffffffffffffffff82169050919050565b6000819050919050565b600060ff82169050919050565b60005b838110156111fc5780820151818401526020810190506111e1565b8381111561120b576000848401525b50505050565b6000600282049050600182168061122957607f821691505b6020821081141561123d5761123c611272565b5b50919050565b7f4e487b7100000000000000000000000000000000000000000000000000000000600052601160045260246000fd5b7f4e487b7100000000000000000000000000000000000000000000000000000000600052602260045260246000fd5b6000601f19601f8301169050919050565b6112bb81611189565b81146112c657600080fd5b50565b6112d2816111c7565b81146112dd57600080fd5b5056fea26469706673582212209eaae2b2e6e78a4a76708a8c566cb16bee126db8d6e669cd57b35650d8678f0c64736f6c63430008000033",
  "linkReferences": {},
  "deployedLinkReferences": {}
}